:07000000020144120100326D
:01000B0032C2
:040013001201223282
:01001B0032B2
:0100230032AA
:10010000C0E0C0D0C083C082B8020A780090018BE2
:1001100012017480027801D2B2D082D083D0D0D0C4
:10012000E022C0E0C0D0C083C082B8010A7800904D
:10013000018012017480027802D2B3D082D083D0C1
:10014000D0D0E02212014980FE780075870075A8A2
:1001500000D2AFD2B2D2B3D2A8D2AA758DFD759813
:1001600052758921D28ED299C298223099FDC299B6
:10017000EFF59922E4936007FFA312016B80F5224B
:100180000A0D464F574152440A0D000A0D5245567A
:07019000455253450A0D0022
:00000001FF
